{
  "contractName": "Orderable",
  "abi": [
    {
      "constant": true,
      "inputs": [
        {
          "name": "itemId",
          "type": "string"
        }
      ],
      "name": "isActiveOrder",
      "outputs": [
        {
          "name": "",
          "type": "bool"
        }
      ],
      "payable": false,
      "stateMutability": "view",
      "type": "function"
    },
    {
      "constant": true,
      "inputs": [
        {
          "name": "itemId",
          "type": "string"
        },
        {
          "name": "addr",
          "type": "address"
        }
      ],
      "name": "isRecipient",
      "outputs": [
        {
          "name": "",
          "type": "bool"
        }
      ],
      "payable": false,
      "stateMutability": "view",
      "type": "function"
    },
    {
      "constant": false,
      "inputs": [
        {
          "name": "itemId",
          "type": "string"
        },
        {
          "name": "from",
          "type": "address"
        },
        {
          "name": "to",
          "type": "address"
        },
        {
          "name": "amount",
          "type": "uint256"
        }
      ],
      "name": "placeOrder",
      "outputs": [],
      "payable": false,
      "stateMutability": "nonpayable",
      "type": "function"
    },
    {
      "constant": true,
      "inputs": [
        {
          "name": "itemId",
          "type": "string"
        }
      ],
      "name": "getOrderFromAndTo",
      "outputs": [
        {
          "name": "from",
          "type": "address"
        },
        {
          "name": "to",
          "type": "address"
        }
      ],
      "payable": false,
      "stateMutability": "view",
      "type": "function"
    }
  ],
  "bytecode": "0x6060604052341561000f57600080fd5b61089b8061001e6000396000f300606060405260043610610062576000357c0100000000000000000000000000000000000000000000000000000000900463ffffffff16806374261f0c14610067578063a1f02824146100dc578063e183009414610170578063fb84160c14610214575b600080fd5b341561007257600080fd5b6100c2600480803590602001908201803590602001908080601f016020809104026020016040519081016040528093929190818152602001838380828437820191505050505050919050506102e4565b604051808215151515815260200191505060405180910390f35b34156100e757600080fd5b610156600480803590602001908201803590602001908080601f0160208091040260200160405190810160405280939291908181526020018383808284378201915050505050509190803573ffffffffffffffffffffffffffffffffffffffff16906020019091905050610427565b604051808215151515815260200191505060405180910390f35b341561017b57600080fd5b610212600480803590602001908201803590602001908080601f0160208091040260200160405190810160405280939291908181526020018383808284378201915050505050509190803573ffffffffffffffffffffffffffffffffffffffff1690602001909190803573ffffffffffffffffffffffffffffffffffffffff169060200190919080359060200190919050506104ee565b005b341561021f57600080fd5b61026f600480803590602001908201803590602001908080601f016020809104026020016040519081016040528093929190818152602001838380828437820191505050505050919050506106a0565b604051808373ffffffffffffffffffffffffffffffffffffffff1673ffffffffffffffffffffffffffffffffffffffff1681526020018273ffffffffffffffffffffffffffffffffffffffff1673ffffffffffffffffffffffffffffffffffffffff1681526020019250505060405180910390f35b6000806000836040518082805190602001908083835b60208310151561031f57805182526020820191506020810190506020830392506102fa565b6001836020036101000a038019825116818451168082178552505050505050905001915050908152602001604051809103902060000180546001816001161561010002031660029004905014156103795760009050610422565b6000600181111561038657fe5b6000836040518082805190602001908083835b6020831015156103be5780518252602082019150602081019050602083039250610399565b6001836020036101000a038019825116818451168082178552505050505050905001915050908152602001604051809103902060040160009054906101000a900460ff16600181111561040d57fe5b14151561041d5760009050610422565b600190505b919050565b60008173ffffffffffffffffffffffffffffffffffffffff166000846040518082805190602001908083835b6020831015156104785780518252602082019150602081019050602083039250610453565b6001836020036101000a038019825116818451168082178552505050505050905001915050908152602001604051809103902060020160009054906101000a900473ffffffffffffffffffffffffffffffffffffffff1673ffffffffffffffffffffffffffffffffffffffff1614905092915050565b60a0604051908101604052808581526020018473ffffffffffffffffffffffffffffffffffffffff1681526020018373ffffffffffffffffffffffffffffffffffffffff1681526020018281526020016000600181111561054b57fe5b8152506000856040518082805190602001908083835b6020831015156105865780518252602082019150602081019050602083039250610561565b6001836020036101000a038019825116818451168082178552505050505050905001915050908152602001604051809103902060008201518160000190805190602001906105d59291906107ca565b5060208201518160010160006101000a81548173ffffffffffffffffffffffffffffffffffffffff021916908373ffffffffffffffffffffffffffffffffffffffff16021790555060408201518160020160006101000a81548173ffffffffffffffffffffffffffffffffffffffff021916908373ffffffffffffffffffffffffffffffffffffffff1602179055506060820151816003015560808201518160040160006101000a81548160ff0219169083600181111561069257fe5b021790555090505050505050565b6000806000836040518082805190602001908083835b6020831015156106db57805182526020820191506020810190506020830392506106b6565b6001836020036101000a038019825116818451168082178552505050505050905001915050908152602001604051809103902060010160009054906101000a900473ffffffffffffffffffffffffffffffffffffffff166000846040518082805190602001908083835b60208310151561076a5780518252602082019150602081019050602083039250610745565b6001836020036101000a038019825116818451168082178552505050505050905001915050908152602001604051809103902060020160009054906101000a900473ffffffffffffffffffffffffffffffffffffffff1691509150915091565b828054600181600116156101000203166002900490600052602060002090601f016020900481019282601f1061080b57805160ff1916838001178555610839565b82800160010185558215610839579182015b8281111561083857825182559160200191906001019061081d565b5b509050610846919061084a565b5090565b61086c91905b80821115610868576000816000905550600101610850565b5090565b905600a165627a7a72305820047685d90d073a480cb047f1718d50ecd4c3ce8250d311d8d06703d19deb113e0029",
  "source": "pragma solidity ^0.4.11;\n\ncontract Orderable {\n    \n    enum OrderStatus { Active, InActive }\n    struct Order {\n        string itemId;\n        address from;\n        address to;\n        uint amount;\n        OrderStatus status;\n    }\n    \n    mapping(string => Order) orders;\n    \n    function placeOrder(string itemId, address from, address to, uint amount) public {\n        orders[itemId] = Order({itemId: itemId, from: from, to: to, amount: amount, status: OrderStatus.Active});\n    }\n    \n    function isActiveOrder(string itemId) constant public returns (bool) {\n        if(bytes(orders[itemId].itemId).length == 0) {\n            return false;\n        }\n        if(orders[itemId].status != OrderStatus.Active) {\n            return false;\n        }\n        return true;\n    }\n    \n    function isRecipient(string itemId, address addr) \n    constant \n    public \n    returns (bool){\n        return (orders[itemId].to == addr);\n    }\n\n    function getOrderFromAndTo(string itemId) \n    constant \n    public \n    returns (address from, address to) {\n        return (orders[itemId].from, orders[itemId].to);\n    }\n    \n    function settleOrder(string itemId) \n    internal\n    returns (bool) {\n        address to = orders[itemId].to;\n        uint amount = orders[itemId].amount;\n\n        require(this.balance >= amount);\n        \n        bool settled = to.send(amount);\n        if(settled) {\n            delete orders[itemId];\n        }\n        return settled;\n    }\n}",
  "sourcePath": "/home/ketan/Documents/hackathon/christ/contracts/Orderable.sol",
  "compiler": {
    "name": "solc",
    "version": "0.4.18+commit.9cf6e910.Emscripten.clang"
  },
  "schemaVersion": "1.0.1",
  "updatedAt": "2017-12-16T13:35:36.796Z"
}