{
  "contractName": "Shippable",
  "abi": [
    {
      "constant": false,
      "inputs": [
        {
          "name": "shipper",
          "type": "address"
        }
      ],
      "name": "addShipper",
      "outputs": [],
      "payable": false,
      "stateMutability": "nonpayable",
      "type": "function"
    },
    {
      "constant": false,
      "inputs": [
        {
          "name": "itemId",
          "type": "string"
        },
        {
          "name": "from",
          "type": "address"
        },
        {
          "name": "to",
          "type": "address"
        }
      ],
      "name": "ship",
      "outputs": [],
      "payable": false,
      "stateMutability": "nonpayable",
      "type": "function"
    },
    {
      "constant": true,
      "inputs": [
        {
          "name": "itemId",
          "type": "string"
        }
      ],
      "name": "isInTransit",
      "outputs": [
        {
          "name": "",
          "type": "bool"
        }
      ],
      "payable": false,
      "stateMutability": "view",
      "type": "function"
    },
    {
      "constant": false,
      "inputs": [
        {
          "name": "itemId",
          "type": "string"
        },
        {
          "name": "status",
          "type": "uint8"
        }
      ],
      "name": "updateShipmentStatus",
      "outputs": [],
      "payable": false,
      "stateMutability": "nonpayable",
      "type": "function"
    }
  ],
  "bytecode": "0x6060604052341561000f57600080fd5b6108b08061001e6000396000f300606060405260043610610062576000357c0100000000000000000000000000000000000000000000000000000000900463ffffffff168063155a7646146100675780636c2c99dd146100a05780637a5707961461013b578063e7d5c46a146101b0575b600080fd5b341561007257600080fd5b61009e600480803573ffffffffffffffffffffffffffffffffffffffff16906020019091905050610219565b005b34156100ab57600080fd5b610139600480803590602001908201803590602001908080601f0160208091040260200160405190810160405280939291908181526020018383808284378201915050505050509190803573ffffffffffffffffffffffffffffffffffffffff1690602001909190803573ffffffffffffffffffffffffffffffffffffffff16906020019091905050610273565b005b341561014657600080fd5b610196600480803590602001908201803590602001908080601f016020809104026020016040519081016040528093929190818152602001838380828437820191505050505050919050506104ce565b604051808215151515815260200191505060405180910390f35b34156101bb57600080fd5b610217600480803590602001908201803590602001908080601f0160208091040260200160405190810160405280939291908181526020018383808284378201915050505050509190803560ff1690602001909190505061056e565b005b60016000808373ffffffffffffffffffffffffffffffffffffffff1673ffffffffffffffffffffffffffffffffffffffff16815260200190815260200160002060006101000a81548160ff02191690831515021790555050565b6000803373ffffffffffffffffffffffffffffffffffffffff1673ffffffffffffffffffffffffffffffffffffffff16815260200190815260200160002060009054906101000a900460ff1615156102ca57600080fd5b60a0604051908101604052808481526020018373ffffffffffffffffffffffffffffffffffffffff1681526020018273ffffffffffffffffffffffffffffffffffffffff1681526020013373ffffffffffffffffffffffffffffffffffffffff1681526020016000600181111561033d57fe5b8152506001846040518082805190602001908083835b6020831015156103785780518252602082019150602081019050602083039250610353565b6001836020036101000a038019825116818451168082178552505050505050905001915050908152602001604051809103902060008201518160000190805190602001906103c79291906107df565b5060208201518160010160006101000a81548173ffffffffffffffffffffffffffffffffffffffff021916908373ffffffffffffffffffffffffffffffffffffffff16021790555060408201518160020160006101000a81548173ffffffffffffffffffffffffffffffffffffffff021916908373ffffffffffffffffffffffffffffffffffffffff16021790555060608201518160030160006101000a81548173ffffffffffffffffffffffffffffffffffffffff021916908373ffffffffffffffffffffffffffffffffffffffff16021790555060808201518160030160146101000a81548160ff021916908360018111156104c157fe5b0217905550905050505050565b6000806001836040518082805190602001908083835b60208310151561050957805182526020820191506020810190506020830392506104e4565b6001836020036101000a03801982511681845116808217855250505050505090500191505090815260200160405180910390206000018054600181600116156101000203166002900490501415156105645760019050610569565b600090505b919050565b6000803373ffffffffffffffffffffffffffffffffffffffff1673ffffffffffffffffffffffffffffffffffffffff16815260200190815260200160002060009054906101000a900460ff1615156105c557600080fd5b60006001836040518082805190602001908083835b6020831015156105ff57805182526020820191506020810190506020830392506105da565b6001836020036101000a03801982511681845116808217855250505050505090500191505090815260200160405180910390206000018054600181600116156101000203166002900490501415151561065757600080fd5b3373ffffffffffffffffffffffffffffffffffffffff166001836040518082805190602001908083835b6020831015156106a65780518252602082019150602081019050602083039250610681565b6001836020036101000a038019825116818451168082178552505050505050905001915050908152602001604051809103902060030160009054906101000a900473ffffffffffffffffffffffffffffffffffffffff1673ffffffffffffffffffffffffffffffffffffffff1614151561071f57600080fd5b60018081111561072b57fe5b60ff168160ff161115151561073f57600080fd5b60018160ff1614156107db57600180836040518082805190602001908083835b602083101515610784578051825260208201915060208101905060208303925061075f565b6001836020036101000a038019825116818451168082178552505050505050905001915050908152602001604051809103902060030160146101000a81548160ff021916908360018111156107d557fe5b02179055505b5050565b828054600181600116156101000203166002900490600052602060002090601f016020900481019282601f1061082057805160ff191683800117855561084e565b8280016001018555821561084e579182015b8281111561084d578251825591602001919060010190610832565b5b50905061085b919061085f565b5090565b61088191905b8082111561087d576000816000905550600101610865565b5090565b905600a165627a7a723058206e29afd2eeac4aab9b964f702eca03a1401021d94cc7af42247ace298f5d73470029",
  "source": "pragma solidity ^0.4.11;\n\ncontract Shippable {\n    \n    enum ShippmentStatus { InTransit, Delivered }\n    struct Shippment {\n        string itemId;\n        address from;\n        address to;\n        address shipper;\n        ShippmentStatus status;\n    }\n    \n    mapping(address => bool) registeredShipper;\n    mapping(string => Shippment) shipments;\n\n    modifier onlyRegisteredShipper() {\n        require(registeredShipper[msg.sender]);\n        _;\n    }\n\n    function isInTransit(string itemId) \n    constant \n    public \n    returns(bool) {\n        if(bytes(shipments[itemId].itemId).length != 0) {\n            return true;\n        } else {\n            return false;\n        }\n    }\n\n    function ship(string itemId, address from, address to) \n    onlyRegisteredShipper \n    public {\n        shipments[itemId] = Shippment({itemId: itemId, from: from, to: to, shipper: msg.sender, status: ShippmentStatus.InTransit});\n    }\n    \n    function updateShipmentStatus(string itemId, uint8 status) \n    onlyRegisteredShipper\n    public {\n        require(bytes(shipments[itemId].itemId).length != 0);\n        require(shipments[itemId].shipper == msg.sender);\n        require(status <= uint8(ShippmentStatus.Delivered));\n\n        if(status == 1) {\n            shipments[itemId].status = ShippmentStatus.Delivered;   \n        }\n    }\n    \n    function addShipper(address shipper) public {\n        registeredShipper[shipper] = true;\n    }\n}",
  "sourcePath": "/home/ketan/Documents/hackathon/christ/contracts/Shippable.sol",
  "compiler": {
    "name": "solc",
    "version": "0.4.18+commit.9cf6e910.Emscripten.clang"
  },
  "schemaVersion": "1.0.1",
  "updatedAt": "2017-12-16T13:35:36.797Z"
}