{
  "contractName": "ShopD",
  "abi": [
    {
      "constant": false,
      "inputs": [
        {
          "name": "shipper",
          "type": "address"
        }
      ],
      "name": "addShipper",
      "outputs": [],
      "payable": false,
      "stateMutability": "nonpayable",
      "type": "function"
    },
    {
      "constant": false,
      "inputs": [
        {
          "name": "itemId",
          "type": "string"
        }
      ],
      "name": "shipOrder",
      "outputs": [],
      "payable": false,
      "stateMutability": "nonpayable",
      "type": "function"
    },
    {
      "constant": false,
      "inputs": [
        {
          "name": "owner",
          "type": "address"
        },
        {
          "name": "itemId",
          "type": "string"
        },
        {
          "name": "itemName",
          "type": "string"
        },
        {
          "name": "price",
          "type": "uint256"
        }
      ],
      "name": "addToStock",
      "outputs": [
        {
          "name": "",
          "type": "bool"
        }
      ],
      "payable": false,
      "stateMutability": "nonpayable",
      "type": "function"
    },
    {
      "constant": false,
      "inputs": [
        {
          "name": "itemId",
          "type": "string"
        }
      ],
      "name": "placeOrder",
      "outputs": [],
      "payable": true,
      "stateMutability": "payable",
      "type": "function"
    },
    {
      "constant": true,
      "inputs": [
        {
          "name": "itemId",
          "type": "string"
        }
      ],
      "name": "getOwner",
      "outputs": [
        {
          "name": "",
          "type": "address"
        }
      ],
      "payable": false,
      "stateMutability": "view",
      "type": "function"
    },
    {
      "constant": false,
      "inputs": [
        {
          "name": "itemId",
          "type": "string"
        },
        {
          "name": "itemName",
          "type": "string"
        },
        {
          "name": "price",
          "type": "uint256"
        }
      ],
      "name": "addItem",
      "outputs": [],
      "payable": false,
      "stateMutability": "nonpayable",
      "type": "function"
    },
    {
      "constant": true,
      "inputs": [
        {
          "name": "orderer",
          "type": "address"
        },
        {
          "name": "itemId",
          "type": "string"
        },
        {
          "name": "payment",
          "type": "uint256"
        }
      ],
      "name": "isBuyable",
      "outputs": [
        {
          "name": "",
          "type": "bool"
        }
      ],
      "payable": false,
      "stateMutability": "view",
      "type": "function"
    },
    {
      "constant": false,
      "inputs": [
        {
          "name": "itemId",
          "type": "string"
        },
        {
          "name": "from",
          "type": "address"
        },
        {
          "name": "to",
          "type": "address"
        }
      ],
      "name": "ship",
      "outputs": [],
      "payable": false,
      "stateMutability": "nonpayable",
      "type": "function"
    },
    {
      "constant": true,
      "inputs": [
        {
          "name": "itemId",
          "type": "string"
        }
      ],
      "name": "isActiveOrder",
      "outputs": [
        {
          "name": "",
          "type": "bool"
        }
      ],
      "payable": false,
      "stateMutability": "view",
      "type": "function"
    },
    {
      "constant": true,
      "inputs": [
        {
          "name": "itemId",
          "type": "string"
        }
      ],
      "name": "isInTransit",
      "outputs": [
        {
          "name": "",
          "type": "bool"
        }
      ],
      "payable": false,
      "stateMutability": "view",
      "type": "function"
    },
    {
      "constant": true,
      "inputs": [],
      "name": "owner",
      "outputs": [
        {
          "name": "",
          "type": "address"
        }
      ],
      "payable": false,
      "stateMutability": "view",
      "type": "function"
    },
    {
      "constant": true,
      "inputs": [
        {
          "name": "itemId",
          "type": "string"
        },
        {
          "name": "addr",
          "type": "address"
        }
      ],
      "name": "isRecipient",
      "outputs": [
        {
          "name": "",
          "type": "bool"
        }
      ],
      "payable": false,
      "stateMutability": "view",
      "type": "function"
    },
    {
      "constant": false,
      "inputs": [
        {
          "name": "itemId",
          "type": "string"
        }
      ],
      "name": "settle",
      "outputs": [],
      "payable": false,
      "stateMutability": "nonpayable",
      "type": "function"
    },
    {
      "constant": true,
      "inputs": [
        {
          "name": "itemId",
          "type": "string"
        }
      ],
      "name": "isInStock",
      "outputs": [
        {
          "name": "",
          "type": "bool"
        }
      ],
      "payable": false,
      "stateMutability": "view",
      "type": "function"
    },
    {
      "constant": false,
      "inputs": [
        {
          "name": "itemId",
          "type": "string"
        },
        {
          "name": "from",
          "type": "address"
        },
        {
          "name": "to",
          "type": "address"
        },
        {
          "name": "amount",
          "type": "uint256"
        }
      ],
      "name": "placeOrder",
      "outputs": [],
      "payable": false,
      "stateMutability": "nonpayable",
      "type": "function"
    },
    {
      "constant": false,
      "inputs": [
        {
          "name": "itemId",
          "type": "string"
        },
        {
          "name": "status",
          "type": "uint8"
        }
      ],
      "name": "updateShipmentStatus",
      "outputs": [],
      "payable": false,
      "stateMutability": "nonpayable",
      "type": "function"
    },
    {
      "constant": true,
      "inputs": [
        {
          "name": "itemId",
          "type": "string"
        }
      ],
      "name": "getOrderFromAndTo",
      "outputs": [
        {
          "name": "from",
          "type": "address"
        },
        {
          "name": "to",
          "type": "address"
        }
      ],
      "payable": false,
      "stateMutability": "view",
      "type": "function"
    },
    {
      "inputs": [],
      "payable": false,
      "stateMutability": "nonpayable",
      "type": "constructor"
    }
  ],
  "bytecode": "0x6060604052341561000f57600080fd5b33600460006101000a81548173ffffffffffffffffffffffffffffffffffffffff021916908373ffffffffffffffffffffffffffffffffffffffff160217905550611e2a8061005f6000396000f3006060604052600436106100f1576000357c0100000000000000000000000000000000000000000000000000000000900463ffffffff168063155a7646146100f6578063186d89d91461012f57806336bd993f1461018c578063453217f81461026c5780634aaf4a12146102be57806364432eb81461035b5780636826be8b146104045780636c2c99dd146104a157806374261f0c1461053c5780637a570796146105b15780638da5cb5b14610626578063a1f028241461067b578063baf312eb1461070f578063da3921dc1461076c578063e1830094146107e1578063e7d5c46a14610885578063fb84160c146108ee575b600080fd5b341561010157600080fd5b61012d600480803573ffffffffffffffffffffffffffffffffffffffff169060200190919050506109be565b005b341561013a57600080fd5b61018a600480803590602001908201803590602001908080601f01602080910402602001604051908101604052809392919081815260200183838082843782019150505050505091905050610a26565b005b341561019757600080fd5b610252600480803573ffffffffffffffffffffffffffffffffffffffff1690602001909190803590602001908201803590602001908080601f0160208091040260200160405190810160405280939291908181526020018383808284378201915050505050509190803590602001908201803590602001908080601f01602080910402602001604051908101604052809392919081815260200183838082843782019150505050505091908035906020019091905050610a73565b604051808215151515815260200191505060405180910390f35b6102bc600480803590602001908201803590602001908080601f01602080910402602001604051908101604052809392919081815260200183838082843782019150505050505091905050610be9565b005b34156102c957600080fd5b610319600480803590602001908201803590602001908080601f01602080910402602001604051908101604052809392919081815260200183838082843782019150505050505091905050610c1c565b604051808273ffffffffffffffffffffffffffffffffffffffff1673ffffffffffffffffffffffffffffffffffffffff16815260200191505060405180910390f35b341561036657600080fd5b610402600480803590602001908201803590602001908080601f0160208091040260200160405190810160405280939291908181526020018383808284378201915050505050509190803590602001908201803590602001908080601f01602080910402602001604051908101604052809392919081815260200183838082843782019150505050505091908035906020019091905050610cb3565b005b341561040f57600080fd5b610487600480803573ffffffffffffffffffffffffffffffffffffffff1690602001909190803590602001908201803590602001908080601f01602080910402602001604051908101604052809392919081815260200183838082843782019150505050505091908035906020019091905050610cda565b604051808215151515815260200191505060405180910390f35b34156104ac57600080fd5b61053a600480803590602001908201803590602001908080601f0160208091040260200160405190810160405280939291908181526020018383808284378201915050505050509190803573ffffffffffffffffffffffffffffffffffffffff1690602001909190803573ffffffffffffffffffffffffffffffffffffffff16906020019091905050610e1f565b005b341561054757600080fd5b610597600480803590602001908201803590602001908080601f0160208091040260200160405190810160405280939291908181526020018383808284378201915050505050509190505061107b565b604051808215151515815260200191505060405180910390f35b34156105bc57600080fd5b61060c600480803590602001908201803590602001908080601f016020809104026020016040519081016040528093929190818152602001838380828437820191505050505050919050506111be565b604051808215151515815260200191505060405180910390f35b341561063157600080fd5b61063961125e565b604051808273ffffffffffffffffffffffffffffffffffffffff1673ffffffffffffffffffffffffffffffffffffffff16815260200191505060405180910390f35b341561068657600080fd5b6106f5600480803590602001908201803590602001908080601f0160208091040260200160405190810160405280939291908181526020018383808284378201915050505050509190803573ffffffffffffffffffffffffffffffffffffffff16906020019091905050611284565b604051808215151515815260200191505060405180910390f35b341561071a57600080fd5b61076a600480803590602001908201803590602001908080601f0160208091040260200160405190810160405280939291908181526020018383808284378201915050505050509190505061134b565b005b341561077757600080fd5b6107c7600480803590602001908201803590602001908080601f01602080910402602001604051908101604052809392919081815260200183838082843782019150505050505091905050611395565b604051808215151515815260200191505060405180910390f35b34156107ec57600080fd5b610883600480803590602001908201803590602001908080601f0160208091040260200160405190810160405280939291908181526020018383808284378201915050505050509190803573ffffffffffffffffffffffffffffffffffffffff1690602001909190803573ffffffffffffffffffffffffffffffffffffffff16906020019091908035906020019091905050611434565b005b341561089057600080fd5b6108ec600480803590602001908201803590602001908080601f0160208091040260200160405190810160405280939291908181526020018383808284378201915050505050509190803560ff169060200190919050506115e6565b005b34156108f957600080fd5b610949600480803590602001908201803590602001908080601f01602080910402602001604051908101604052809392919081815260200183838082843782019150505050505091905050611859565b604051808373ffffffffffffffffffffffffffffffffffffffff1673ffffffffffffffffffffffffffffffffffffffff1681526020018273ffffffffffffffffffffffffffffffffffffffff1673ffffffffffffffffffffffffffffffffffffffff1681526020019250505060405180910390f35b600460009054906101000a900473ffffffffffffffffffffffffffffffffffffffff1673ffffffffffffffffffffffffffffffffffffffff163373ffffffffffffffffffffffffffffffffffffffff16141515610a1a57600080fd5b610a2381611983565b50565b600080610a328361107b565b1515610a3d57600080fd5b610a46836111be565b151515610a5257600080fd5b610a5b83611859565b8092508193505050610a6e838383610e1f565b505050565b600060a0604051908101604052808581526020018481526020018381526020018673ffffffffffffffffffffffffffffffffffffffff16815260200160006001811115610abc57fe5b8152506000856040518082805190602001908083835b602083101515610af75780518252602082019150602081019050602083039250610ad2565b6001836020036101000a03801982511681845116808217855250505050505090500191505090815260200160405180910390206000820151816000019080519060200190610b46929190611d11565b506020820151816001019080519060200190610b63929190611d11565b506040820151816002015560608201518160030160006101000a81548173ffffffffffffffffffffffffffffffffffffffff021916908373ffffffffffffffffffffffffffffffffffffffff16021790555060808201518160030160146101000a81548160ff02191690836001811115610bd957fe5b0217905550905050949350505050565b6000610bf6338334610cda565b1515610c0157600080fd5b610c0a82610c1c565b9050610c1882823334611434565b5050565b600080826040518082805190602001908083835b602083101515610c555780518252602082019150602081019050602083039250610c30565b6001836020036101000a038019825116818451168082178552505050505050905001915050908152602001604051809103902060030160009054906101000a900473ffffffffffffffffffffffffffffffffffffffff169050919050565b610cbc83611395565b151515610cc857600080fd5b610cd433848484610a73565b50505050565b600080610ce684611395565b1515610cf55760009150610e17565b6000846040518082805190602001908083835b602083101515610d2d5780518252602082019150602081019050602083039250610d08565b6001836020036101000a038019825116818451168082178552505050505050905001915050908152602001604051809103902090508473ffffffffffffffffffffffffffffffffffffffff168160030160009054906101000a900473ffffffffffffffffffffffffffffffffffffffff1673ffffffffffffffffffffffffffffffffffffffff161415610dc35760009150610e17565b60006001811115610dd057fe5b8160030160149054906101000a900460ff166001811115610ded57fe5b141515610dfd5760009150610e17565b8281600201541115610e125760009150610e17565b600191505b509392505050565b600260003373ffffffffffffffffffffffffffffffffffffffff1673ffffffffffffffffffffffffffffffffffffffff16815260200190815260200160002060009054906101000a900460ff161515610e7757600080fd5b60a0604051908101604052808481526020018373ffffffffffffffffffffffffffffffffffffffff1681526020018273ffffffffffffffffffffffffffffffffffffffff1681526020013373ffffffffffffffffffffffffffffffffffffffff16815260200160006001811115610eea57fe5b8152506003846040518082805190602001908083835b602083101515610f255780518252602082019150602081019050602083039250610f00565b6001836020036101000a03801982511681845116808217855250505050505090500191505090815260200160405180910390206000820151816000019080519060200190610f74929190611d11565b5060208201518160010160006101000a81548173ffffffffffffffffffffffffffffffffffffffff021916908373ffffffffffffffffffffffffffffffffffffffff16021790555060408201518160020160006101000a81548173ffffffffffffffffffffffffffffffffffffffff021916908373ffffffffffffffffffffffffffffffffffffffff16021790555060608201518160030160006101000a81548173ffffffffffffffffffffffffffffffffffffffff021916908373ffffffffffffffffffffffffffffffffffffffff16021790555060808201518160030160146101000a81548160ff0219169083600181111561106e57fe5b0217905550905050505050565b6000806001836040518082805190602001908083835b6020831015156110b65780518252602082019150602081019050602083039250611091565b6001836020036101000a0380198251168184511680821785525050505050509050019150509081526020016040518091039020600001805460018160011615610100020316600290049050141561111057600090506111b9565b6000600181111561111d57fe5b6001836040518082805190602001908083835b6020831015156111555780518252602082019150602081019050602083039250611130565b6001836020036101000a038019825116818451168082178552505050505050905001915050908152602001604051809103902060040160009054906101000a900460ff1660018111156111a457fe5b1415156111b457600090506111b9565b600190505b919050565b6000806003836040518082805190602001908083835b6020831015156111f957805182526020820191506020810190506020830392506111d4565b6001836020036101000a03801982511681845116808217855250505050505090500191505090815260200160405180910390206000018054600181600116156101000203166002900490501415156112545760019050611259565b600090505b919050565b600460009054906101000a900473ffffffffffffffffffffffffffffffffffffffff1681565b60008173ffffffffffffffffffffffffffffffffffffffff166001846040518082805190602001908083835b6020831015156112d557805182526020820191506020810190506020830392506112b0565b6001836020036101000a038019825116818451168082178552505050505050905001915050908152602001604051809103902060020160009054906101000a900473ffffffffffffffffffffffffffffffffffffffff1673ffffffffffffffffffffffffffffffffffffffff1614905092915050565b60006113568261107b565b151561136157600080fd5b61136b8233611284565b151561137657600080fd5b61137f826119de565b905080156113915761139082611c3d565b5b5050565b6000806000836040518082805190602001908083835b6020831015156113d057805182526020820191506020810190506020830392506113ab565b6001836020036101000a0380198251168184511680821785525050505050509050019150509081526020016040518091039020600001805460018160011615610100020316600290049050141561142a576000905061142f565b600190505b919050565b60a0604051908101604052808581526020018473ffffffffffffffffffffffffffffffffffffffff1681526020018373ffffffffffffffffffffffffffffffffffffffff1681526020018281526020016000600181111561149157fe5b8152506001856040518082805190602001908083835b6020831015156114cc57805182526020820191506020810190506020830392506114a7565b6001836020036101000a0380198251168184511680821785525050505050509050019150509081526020016040518091039020600082015181600001908051906020019061151b929190611d11565b5060208201518160010160006101000a81548173ffffffffffffffffffffffffffffffffffffffff021916908373ffffffffffffffffffffffffffffffffffffffff16021790555060408201518160020160006101000a81548173ffffffffffffffffffffffffffffffffffffffff021916908373ffffffffffffffffffffffffffffffffffffffff1602179055506060820151816003015560808201518160040160006101000a81548160ff021916908360018111156115d857fe5b021790555090505050505050565b600260003373ffffffffffffffffffffffffffffffffffffffff1673ffffffffffffffffffffffffffffffffffffffff16815260200190815260200160002060009054906101000a900460ff16151561163e57600080fd5b60006003836040518082805190602001908083835b6020831015156116785780518252602082019150602081019050602083039250611653565b6001836020036101000a0380198251168184511680821785525050505050509050019150509081526020016040518091039020600001805460018160011615610100020316600290049050141515156116d057600080fd5b3373ffffffffffffffffffffffffffffffffffffffff166003836040518082805190602001908083835b60208310151561171f57805182526020820191506020810190506020830392506116fa565b6001836020036101000a038019825116818451168082178552505050505050905001915050908152602001604051809103902060030160009054906101000a900473ffffffffffffffffffffffffffffffffffffffff1673ffffffffffffffffffffffffffffffffffffffff1614151561179857600080fd5b6001808111156117a457fe5b60ff168160ff16111515156117b857600080fd5b60018160ff1614156118555760016003836040518082805190602001908083835b6020831015156117fe57805182526020820191506020810190506020830392506117d9565b6001836020036101000a038019825116818451168082178552505050505050905001915050908152602001604051809103902060030160146101000a81548160ff0219169083600181111561184f57fe5b02179055505b5050565b6000806001836040518082805190602001908083835b602083101515611894578051825260208201915060208101905060208303925061186f565b6001836020036101000a038019825116818451168082178552505050505050905001915050908152602001604051809103902060010160009054906101000a900473ffffffffffffffffffffffffffffffffffffffff166001846040518082805190602001908083835b60208310151561192357805182526020820191506020810190506020830392506118fe565b6001836020036101000a038019825116818451168082178552505050505050905001915050908152602001604051809103902060020160009054906101000a900473ffffffffffffffffffffffffffffffffffffffff1691509150915091565b6001600260008373ffffffffffffffffffffffffffffffffffffffff1673ffffffffffffffffffffffffffffffffffffffff16815260200190815260200160002060006101000a81548160ff02191690831515021790555050565b6000806000806001856040518082805190602001908083835b602083101515611a1c57805182526020820191506020810190506020830392506119f7565b6001836020036101000a038019825116818451168082178552505050505050905001915050908152602001604051809103902060020160009054906101000a900473ffffffffffffffffffffffffffffffffffffffff1692506001856040518082805190602001908083835b602083101515611aad5780518252602082019150602081019050602083039250611a88565b6001836020036101000a0380198251168184511680821785525050505050509050019150509081526020016040518091039020600301549150813073ffffffffffffffffffffffffffffffffffffffff163110151515611b0c57600080fd5b8273ffffffffffffffffffffffffffffffffffffffff166108fc839081150290604051600060405180830381858888f1935050505090508015611c32576001856040518082805190602001908083835b602083101515611b815780518252602082019150602081019050602083039250611b5c565b6001836020036101000a038019825116818451168082178552505050505050905001915050908152602001604051809103902060008082016000611bc59190611d91565b6001820160006101000a81549073ffffffffffffffffffffffffffffffffffffffff02191690556002820160006101000a81549073ffffffffffffffffffffffffffffffffffffffff021916905560038201600090556004820160006101000a81549060ff021916905550505b809350505050919050565b6000816040518082805190602001908083835b602083101515611c755780518252602082019150602081019050602083039250611c50565b6001836020036101000a038019825116818451168082178552505050505050905001915050908152602001604051809103902060008082016000611cb99190611d91565b600182016000611cc99190611d91565b60028201600090556003820160006101000a81549073ffffffffffffffffffffffffffffffffffffffff02191690556003820160146101000a81549060ff0219169055505050565b828054600181600116156101000203166002900490600052602060002090601f016020900481019282601f10611d5257805160ff1916838001178555611d80565b82800160010185558215611d80579182015b82811115611d7f578251825591602001919060010190611d64565b5b509050611d8d9190611dd9565b5090565b50805460018160011615610100020316600290046000825580601f10611db75750611dd6565b601f016020900490600052602060002090810190611dd59190611dd9565b5b50565b611dfb91905b80821115611df7576000816000905550600101611ddf565b5090565b905600a165627a7a72305820278c1eaac705f9a47336b9a94e88b6f686f85b1b1a84848e1a6c693ab9bbeec40029",
  "source": "pragma solidity ^0.4.11;\n\nimport './Stockable.sol';\nimport './Orderable.sol';\nimport './Shippable.sol';\n\ncontract ShopD is Stockable, Orderable, Shippable {\n\n    address public owner;\n\n    function ShopD() public {\n        owner = msg.sender;\n    }\n\n    modifier onlyOwner() {\n        require(msg.sender == owner);\n        _;\n    }\n\n    function addItem(string itemId, string itemName, uint price) public {\n        require(!super.isInStock(itemId));\n        \n        super.addToStock(msg.sender, itemId, itemName, price);\n    }\n    \n    function placeOrder(string itemId) public payable {\n        require(super.isBuyable(msg.sender, itemId, msg.value));\n        \n        address itemOwner = super.getOwner(itemId);\n        super.placeOrder(itemId, itemOwner, msg.sender, msg.value);\n    }\n\n    function shipOrder(string itemId) public {\n        require(super.isActiveOrder(itemId));\n        require(!super.isInTransit(itemId));\n        \n        address from;\n        address to;\n        (from, to) = super.getOrderFromAndTo(itemId);\n        super.ship(itemId, from, to);\n    }\n    \n    function settle(string itemId) public {\n        require(super.isActiveOrder(itemId));\n        require(super.isRecipient(itemId, msg.sender));\n        \n        bool settled = super.settleOrder(itemId);\n        if(settled) {\n            super.removeFromStock(itemId);\n        }\n    }\n\n    function addShipper(address shipper) \n    onlyOwner \n    public {\n        super.addShipper(shipper);\n    }\n}",
  "sourcePath": "/home/ketan/Documents/hackathon/christ/contracts/ShopD.sol",
  "compiler": {
    "name": "solc",
    "version": "0.4.18+commit.9cf6e910.Emscripten.clang"
  },
  "schemaVersion": "1.0.1",
  "updatedAt": "2017-12-16T13:35:37.796Z"
}