{
  "contractName": "Stockable",
  "abi": [
    {
      "constant": false,
      "inputs": [
        {
          "name": "owner",
          "type": "address"
        },
        {
          "name": "itemId",
          "type": "string"
        },
        {
          "name": "itemName",
          "type": "string"
        },
        {
          "name": "price",
          "type": "uint256"
        }
      ],
      "name": "addToStock",
      "outputs": [
        {
          "name": "",
          "type": "bool"
        }
      ],
      "payable": false,
      "stateMutability": "nonpayable",
      "type": "function"
    },
    {
      "constant": true,
      "inputs": [
        {
          "name": "itemId",
          "type": "string"
        }
      ],
      "name": "getOwner",
      "outputs": [
        {
          "name": "",
          "type": "address"
        }
      ],
      "payable": false,
      "stateMutability": "view",
      "type": "function"
    },
    {
      "constant": true,
      "inputs": [
        {
          "name": "orderer",
          "type": "address"
        },
        {
          "name": "itemId",
          "type": "string"
        },
        {
          "name": "payment",
          "type": "uint256"
        }
      ],
      "name": "isBuyable",
      "outputs": [
        {
          "name": "",
          "type": "bool"
        }
      ],
      "payable": false,
      "stateMutability": "view",
      "type": "function"
    },
    {
      "constant": true,
      "inputs": [
        {
          "name": "itemId",
          "type": "string"
        }
      ],
      "name": "isInStock",
      "outputs": [
        {
          "name": "",
          "type": "bool"
        }
      ],
      "payable": false,
      "stateMutability": "view",
      "type": "function"
    }
  ],
  "bytecode": "0x6060604052341561000f57600080fd5b6107b88061001e6000396000f300606060405260043610610062576000357c0100000000000000000000000000000000000000000000000000000000900463ffffffff16806336bd993f146100675780634aaf4a12146101475780636826be8b146101e4578063da3921dc14610281575b600080fd5b341561007257600080fd5b61012d600480803573ffffffffffffffffffffffffffffffffffffffff1690602001909190803590602001908201803590602001908080601f0160208091040260200160405190810160405280939291908181526020018383808284378201915050505050509190803590602001908201803590602001908080601f016020809104026020016040519081016040528093929190818152602001838380828437820191505050505050919080359060200190919050506102f6565b604051808215151515815260200191505060405180910390f35b341561015257600080fd5b6101a2600480803590602001908201803590602001908080601f0160208091040260200160405190810160405280939291908181526020018383808284378201915050505050509190505061046c565b604051808273ffffffffffffffffffffffffffffffffffffffff1673ffffffffffffffffffffffffffffffffffffffff16815260200191505060405180910390f35b34156101ef57600080fd5b610267600480803573ffffffffffffffffffffffffffffffffffffffff1690602001909190803590602001908201803590602001908080601f01602080910402602001604051908101604052809392919081815260200183838082843782019150505050505091908035906020019091905050610503565b604051808215151515815260200191505060405180910390f35b341561028c57600080fd5b6102dc600480803590602001908201803590602001908080601f01602080910402602001604051908101604052809392919081815260200183838082843782019150505050505091905050610648565b604051808215151515815260200191505060405180910390f35b600060a0604051908101604052808581526020018481526020018381526020018673ffffffffffffffffffffffffffffffffffffffff1681526020016000600181111561033f57fe5b8152506000856040518082805190602001908083835b60208310151561037a5780518252602082019150602081019050602083039250610355565b6001836020036101000a038019825116818451168082178552505050505050905001915050908152602001604051809103902060008201518160000190805190602001906103c99291906106e7565b5060208201518160010190805190602001906103e69291906106e7565b506040820151816002015560608201518160030160006101000a81548173ffffffffffffffffffffffffffffffffffffffff021916908373ffffffffffffffffffffffffffffffffffffffff16021790555060808201518160030160146101000a81548160ff0219169083600181111561045c57fe5b0217905550905050949350505050565b600080826040518082805190602001908083835b6020831015156104a55780518252602082019150602081019050602083039250610480565b6001836020036101000a038019825116818451168082178552505050505050905001915050908152602001604051809103902060030160009054906101000a900473ffffffffffffffffffffffffffffffffffffffff169050919050565b60008061050f84610648565b151561051e5760009150610640565b6000846040518082805190602001908083835b6020831015156105565780518252602082019150602081019050602083039250610531565b6001836020036101000a038019825116818451168082178552505050505050905001915050908152602001604051809103902090508473ffffffffffffffffffffffffffffffffffffffff168160030160009054906101000a900473ffffffffffffffffffffffffffffffffffffffff1673ffffffffffffffffffffffffffffffffffffffff1614156105ec5760009150610640565b600060018111156105f957fe5b8160030160149054906101000a900460ff16600181111561061657fe5b1415156106265760009150610640565b828160020154111561063b5760009150610640565b600191505b509392505050565b6000806000836040518082805190602001908083835b602083101515610683578051825260208201915060208101905060208303925061065e565b6001836020036101000a038019825116818451168082178552505050505050905001915050908152602001604051809103902060000180546001816001161561010002031660029004905014156106dd57600090506106e2565b600190505b919050565b828054600181600116156101000203166002900490600052602060002090601f016020900481019282601f1061072857805160ff1916838001178555610756565b82800160010185558215610756579182015b8281111561075557825182559160200191906001019061073a565b5b5090506107639190610767565b5090565b61078991905b8082111561078557600081600090555060010161076d565b5090565b905600a165627a7a72305820cc34640080fb67bf0ca5e78d91111c379135224c4b19176d8fcdf019e9ba83350029",
  "source": "pragma solidity ^0.4.11;\n\ncontract Stockable {\n\n    enum ItemStatus { InStock, Delivered }\n    \n    struct Item {\n        string itemId;\n        string itemName;\n        uint price;\n        address owner;\n        ItemStatus status;\n    }\n    \n    mapping(string => Item) stock;\n    \n    function isInStock(string itemId) constant public returns(bool) {\n        if(bytes(stock[itemId].itemId).length == 0) {\n            return false;\n        } else {\n            return true;\n        }\n    }\n    \n    function addToStock(address owner, string itemId, string itemName, uint price) public returns(bool) {\n        stock[itemId] = Item({itemId: itemId, itemName: itemName, owner: owner, price: price, status: ItemStatus.InStock});\n    }\n    \n    function isBuyable(address orderer, string itemId, uint payment) constant public returns (bool){\n        if(!isInStock(itemId)) {\n            return false;\n        }\n\n        Item storage item = stock[itemId];\n\n        if(item.owner == orderer) {\n            return false;\n        }\n        if(item.status != ItemStatus.InStock) {\n            return false;\n        }\n        if(item.price > payment) {\n            return false;\n        }\n        \n        return true;\n    }\n    \n    function getOwner(string itemId) constant public returns (address) {\n        return stock[itemId].owner;\n    }\n    \n    function removeFromStock(string itemId) internal {\n        delete stock[itemId];\n    }\n}",
  "sourcePath": "/home/ketan/Documents/hackathon/christ/contracts/Stockable.sol",
  "compiler": {
    "name": "solc",
    "version": "0.4.18+commit.9cf6e910.Emscripten.clang"
  },
  "schemaVersion": "1.0.1",
  "updatedAt": "2017-12-16T13:35:36.798Z"
}